{
  "_format": "hh-sol-artifact-1",
  "contractName": "MyEpicNFT",
  "sourceName": "contracts/MyEpicNFT.sol",
  "abi": [
    {
      "inputs": [],
      "stateMutability": "nonpayable",
      "type": "constructor"
    },
    {
      "anonymous": false,
      "inputs": [
        {
          "indexed": true,
          "internalType": "address",
          "name": "owner",
          "type": "address"
        },
        {
          "indexed": true,
          "internalType": "address",
          "name": "approved",
          "type": "address"
        },
        {
          "indexed": true,
          "internalType": "uint256",
          "name": "tokenId",
          "type": "uint256"
        }
      ],
      "name": "Approval",
      "type": "event"
    },
    {
      "anonymous": false,
      "inputs": [
        {
          "indexed": true,
          "internalType": "address",
          "name": "owner",
          "type": "address"
        },
        {
          "indexed": true,
          "internalType": "address",
          "name": "operator",
          "type": "address"
        },
        {
          "indexed": false,
          "internalType": "bool",
          "name": "approved",
          "type": "bool"
        }
      ],
      "name": "ApprovalForAll",
      "type": "event"
    },
    {
      "anonymous": false,
      "inputs": [
        {
          "indexed": false,
          "internalType": "address",
          "name": "sender",
          "type": "address"
        },
        {
          "indexed": false,
          "internalType": "uint256",
          "name": "tokenId",
          "type": "uint256"
        },
        {
          "indexed": false,
          "internalType": "uint256",
          "name": "NFTsMinted",
          "type": "uint256"
        }
      ],
      "name": "NewEpicNFTMinted",
      "type": "event"
    },
    {
      "anonymous": false,
      "inputs": [
        {
          "indexed": true,
          "internalType": "address",
          "name": "from",
          "type": "address"
        },
        {
          "indexed": true,
          "internalType": "address",
          "name": "to",
          "type": "address"
        },
        {
          "indexed": true,
          "internalType": "uint256",
          "name": "tokenId",
          "type": "uint256"
        }
      ],
      "name": "Transfer",
      "type": "event"
    },
    {
      "inputs": [
        {
          "internalType": "address",
          "name": "to",
          "type": "address"
        },
        {
          "internalType": "uint256",
          "name": "tokenId",
          "type": "uint256"
        }
      ],
      "name": "approve",
      "outputs": [],
      "stateMutability": "nonpayable",
      "type": "function"
    },
    {
      "inputs": [
        {
          "internalType": "address",
          "name": "owner",
          "type": "address"
        }
      ],
      "name": "balanceOf",
      "outputs": [
        {
          "internalType": "uint256",
          "name": "",
          "type": "uint256"
        }
      ],
      "stateMutability": "view",
      "type": "function"
    },
    {
      "inputs": [
        {
          "internalType": "uint256",
          "name": "tokenId",
          "type": "uint256"
        }
      ],
      "name": "getApproved",
      "outputs": [
        {
          "internalType": "address",
          "name": "",
          "type": "address"
        }
      ],
      "stateMutability": "view",
      "type": "function"
    },
    {
      "inputs": [],
      "name": "getTotalNFTsMintedSoFar",
      "outputs": [
        {
          "internalType": "uint256",
          "name": "",
          "type": "uint256"
        }
      ],
      "stateMutability": "view",
      "type": "function"
    },
    {
      "inputs": [
        {
          "internalType": "address",
          "name": "owner",
          "type": "address"
        },
        {
          "internalType": "address",
          "name": "operator",
          "type": "address"
        }
      ],
      "name": "isApprovedForAll",
      "outputs": [
        {
          "internalType": "bool",
          "name": "",
          "type": "bool"
        }
      ],
      "stateMutability": "view",
      "type": "function"
    },
    {
      "inputs": [],
      "name": "makeAnEpicNFT",
      "outputs": [],
      "stateMutability": "nonpayable",
      "type": "function"
    },
    {
      "inputs": [],
      "name": "name",
      "outputs": [
        {
          "internalType": "string",
          "name": "",
          "type": "string"
        }
      ],
      "stateMutability": "view",
      "type": "function"
    },
    {
      "inputs": [
        {
          "internalType": "uint256",
          "name": "tokenId",
          "type": "uint256"
        }
      ],
      "name": "ownerOf",
      "outputs": [
        {
          "internalType": "address",
          "name": "",
          "type": "address"
        }
      ],
      "stateMutability": "view",
      "type": "function"
    },
    {
      "inputs": [
        {
          "internalType": "uint256",
          "name": "tokenId",
          "type": "uint256"
        }
      ],
      "name": "pickRandomColor",
      "outputs": [
        {
          "internalType": "string",
          "name": "",
          "type": "string"
        }
      ],
      "stateMutability": "view",
      "type": "function"
    },
    {
      "inputs": [
        {
          "internalType": "uint256",
          "name": "tokenId",
          "type": "uint256"
        }
      ],
      "name": "pickRandomFirstWord",
      "outputs": [
        {
          "internalType": "string",
          "name": "",
          "type": "string"
        }
      ],
      "stateMutability": "view",
      "type": "function"
    },
    {
      "inputs": [
        {
          "internalType": "uint256",
          "name": "tokenId",
          "type": "uint256"
        }
      ],
      "name": "pickRandomSecondWord",
      "outputs": [
        {
          "internalType": "string",
          "name": "",
          "type": "string"
        }
      ],
      "stateMutability": "view",
      "type": "function"
    },
    {
      "inputs": [
        {
          "internalType": "uint256",
          "name": "tokenId",
          "type": "uint256"
        }
      ],
      "name": "pickRandomThirdWord",
      "outputs": [
        {
          "internalType": "string",
          "name": "",
          "type": "string"
        }
      ],
      "stateMutability": "view",
      "type": "function"
    },
    {
      "inputs": [
        {
          "internalType": "address",
          "name": "from",
          "type": "address"
        },
        {
          "internalType": "address",
          "name": "to",
          "type": "address"
        },
        {
          "internalType": "uint256",
          "name": "tokenId",
          "type": "uint256"
        }
      ],
      "name": "safeTransferFrom",
      "outputs": [],
      "stateMutability": "nonpayable",
      "type": "function"
    },
    {
      "inputs": [
        {
          "internalType": "address",
          "name": "from",
          "type": "address"
        },
        {
          "internalType": "address",
          "name": "to",
          "type": "address"
        },
        {
          "internalType": "uint256",
          "name": "tokenId",
          "type": "uint256"
        },
        {
          "internalType": "bytes",
          "name": "_data",
          "type": "bytes"
        }
      ],
      "name": "safeTransferFrom",
      "outputs": [],
      "stateMutability": "nonpayable",
      "type": "function"
    },
    {
      "inputs": [
        {
          "internalType": "address",
          "name": "operator",
          "type": "address"
        },
        {
          "internalType": "bool",
          "name": "approved",
          "type": "bool"
        }
      ],
      "name": "setApprovalForAll",
      "outputs": [],
      "stateMutability": "nonpayable",
      "type": "function"
    },
    {
      "inputs": [
        {
          "internalType": "bytes4",
          "name": "interfaceId",
          "type": "bytes4"
        }
      ],
      "name": "supportsInterface",
      "outputs": [
        {
          "internalType": "bool",
          "name": "",
          "type": "bool"
        }
      ],
      "stateMutability": "view",
      "type": "function"
    },
    {
      "inputs": [],
      "name": "symbol",
      "outputs": [
        {
          "internalType": "string",
          "name": "",
          "type": "string"
        }
      ],
      "stateMutability": "view",
      "type": "function"
    },
    {
      "inputs": [
        {
          "internalType": "uint256",
          "name": "tokenId",
          "type": "uint256"
        }
      ],
      "name": "tokenURI",
      "outputs": [
        {
          "internalType": "string",
          "name": "",
          "type": "string"
        }
      ],
      "stateMutability": "view",
      "type": "function"
    },
    {
      "inputs": [
        {
          "internalType": "address",
          "name": "from",
          "type": "address"
        },
        {
          "internalType": "address",
          "name": "to",
          "type": "address"
        },
        {
          "internalType": "uint256",
          "name": "tokenId",
          "type": "uint256"
        }
      ],
      "name": "transferFrom",
      "outputs": [],
      "stateMutability": "nonpayable",
      "type": "function"
    }
  ],
  "bytecode": "0x608060405260405180610100016040528060d38152602001620046ff60d39139600890805190602001906200003692919062000836565b50604051806080016040528060568152602001620047d260569139600990805190602001906200006892919062000836565b506040518060c001604052806040518060400160405280600581526020017f42656e313000000000000000000000000000000000000000000000000000000081525081526020016040518060400160405280600d81526020017f416e67656c696e614a6f6c69650000000000000000000000000000000000000081525081526020016040518060400160405280600e81526020017f7878785f7874656e746174696f6e00000000000000000000000000000000000081525081526020016040518060400160405280600881526020017f7468655f726f636b00000000000000000000000000000000000000000000000081525081526020016040518060400160405280600881526020017f636869616d616b6100000000000000000000000000000000000000000000000081525081526020016040518060400160405280600481526020017f466f6f6400000000000000000000000000000000000000000000000000000000815250815250600a906006620001e6929190620008c7565b506040518060c001604052806040518060400160405280600581526020017f536872656b00000000000000000000000000000000000000000000000000000081525081526020016040518060400160405280600c81526020017f576f6d616e4f66537465656c000000000000000000000000000000000000000081525081526020016040518060400160405280600481526020017f327061630000000000000000000000000000000000000000000000000000000081525081526020016040518060400160405280600981526020017f6a6f686e5f63656e61000000000000000000000000000000000000000000000081525081526020016040518060400160405280600481526020017f736e6f770000000000000000000000000000000000000000000000000000000081525081526020016040518060400160405280600481526020017f436f646500000000000000000000000000000000000000000000000000000000815250815250600b90600662000364929190620008c7565b506040518060c001604052806040518060400160405280600981526020017f5370696465724d616e000000000000000000000000000000000000000000000081525081526020016040518060400160405280600881526020017f436174576f6d616e00000000000000000000000000000000000000000000000081525081526020016040518060400160405280600b81526020017f6a756963655f776f726c6400000000000000000000000000000000000000000081525081526020016040518060400160405280600481526020017f656467650000000000000000000000000000000000000000000000000000000081525081526020016040518060400160405280600581526020017f4972656e6500000000000000000000000000000000000000000000000000000081525081526020016040518060400160405280600381526020017f5365780000000000000000000000000000000000000000000000000000000000815250815250600c906006620004e2929190620008c7565b506040518060c001604052806040518060400160405280600381526020017f726564000000000000000000000000000000000000000000000000000000000081525081526020016040518060400160405280600781526020017f233038433241380000000000000000000000000000000000000000000000000081525081526020016040518060400160405280600581526020017f626c61636b00000000000000000000000000000000000000000000000000000081525081526020016040518060400160405280600681526020017f79656c6c6f77000000000000000000000000000000000000000000000000000081525081526020016040518060400160405280600481526020017f626c75650000000000000000000000000000000000000000000000000000000081525081526020016040518060400160405280600581526020017f677265656e000000000000000000000000000000000000000000000000000000815250815250600d90600662000660929190620008c7565b506032600e556000600f553480156200067857600080fd5b506040518060400160405280600981526020017f5371756172654e465400000000000000000000000000000000000000000000008152506040518060400160405280600681526020017f53515541524500000000000000000000000000000000000000000000000000008152508160009080519060200190620006fd92919062000836565b5080600190805190602001906200071692919062000836565b505050620007646040518060400160405280601e81526020017f54686973206973206d79204e465420636f6e74726163742e20576f61682100008152506200076a60201b620014561760201c565b62000ae8565b6200080a81604051602401620007819190620009fc565b6040516020818303038152906040527f41304fac000000000000000000000000000000000000000000000000000000007bffffffffffffffffffffffffffffffffffffffffffffffffffffffff19166020820180517bffffffffffffffffffffffffffffffffffffffffffffffffffffffff83818316178352505050506200080d60201b60201c565b50565b60008151905060006a636f6e736f6c652e6c6f679050602083016000808483855afa5050505050565b828054620008449062000a72565b90600052602060002090601f016020900481019282620008685760008555620008b4565b82601f106200088357805160ff1916838001178555620008b4565b82800160010185558215620008b4579182015b82811115620008b357825182559160200191906001019062000896565b5b509050620008c391906200092e565b5090565b8280548282559060005260206000209081019282156200091b579160200282015b828111156200091a5782518290805190602001906200090992919062000836565b5091602001919060010190620008e8565b5b5090506200092a91906200094d565b5090565b5b80821115620009495760008160009055506001016200092f565b5090565b5b8082111562000971576000818162000967919062000975565b506001016200094e565b5090565b508054620009839062000a72565b6000825580601f10620009975750620009b8565b601f016020900490600052602060002090810190620009b791906200092e565b5b50565b6000620009c88262000a20565b620009d4818562000a2b565b9350620009e681856020860162000a3c565b620009f18162000ad7565b840191505092915050565b6000602082019050818103600083015262000a188184620009bb565b905092915050565b600081519050919050565b600082825260208201905092915050565b60005b8381101562000a5c57808201518184015260208101905062000a3f565b8381111562000a6c576000848401525b50505050565b6000600282049050600182168062000a8b57607f821691505b6020821081141562000aa25762000aa162000aa8565b5b50919050565b7f4e487b7100000000000000000000000000000000000000000000000000000000600052602260045260246000fd5b6000601f19601f8301169050919050565b613c078062000af86000396000f3fe608060405234801561001057600080fd5b50600436106101215760003560e01c80636352211e116100ad578063b88d4fde11610071578063b88d4fde14610340578063c575757a1461035c578063c87b56dd1461038c578063de9d132f146103bc578063e985e9c5146103c657610121565b80636352211e1461027657806370a08231146102a657806395d89b41146102d6578063a22cb465146102f4578063b187301f1461031057610121565b8063095ea7b3116100f4578063095ea7b3146101c257806323b872dd146101de5780632de38d68146101fa57806342842e0e1461022a578063514dc8c61461024657610121565b806301ffc9a714610126578063060475901461015657806306fdde0314610174578063081812fc14610192575b600080fd5b610140600480360381019061013b91906126e9565b6103f6565b60405161014d919061345d565b60405180910390f35b61015e6104d8565b60405161016b91906136f8565b60405180910390f35b61017c6104e2565b6040516101899190613478565b60405180910390f35b6101ac60048036038101906101a7919061273b565b610574565b6040516101b991906133bf565b60405180910390f35b6101dc60048036038101906101d791906126ad565b6105f9565b005b6101f860048036038101906101f391906125a7565b610711565b005b610214600480360381019061020f919061273b565b610771565b6040516102219190613478565b60405180910390f35b610244600480360381019061023f91906125a7565b61088f565b005b610260600480360381019061025b919061273b565b6108af565b60405161026d9190613478565b60405180910390f35b610290600480360381019061028b919061273b565b6109cd565b60405161029d91906133bf565b60405180910390f35b6102c060048036038101906102bb9190612542565b610a7f565b6040516102cd91906136f8565b60405180910390f35b6102de610b37565b6040516102eb9190613478565b60405180910390f35b61030e60048036038101906103099190612671565b610bc9565b005b61032a6004803603810190610325919061273b565b610d4a565b6040516103379190613478565b60405180910390f35b61035a600480360381019061035591906125f6565b610e68565b005b6103766004803603810190610371919061273b565b610eca565b6040516103839190613478565b60405180910390f35b6103a660048036038101906103a1919061273b565b610fe8565b6040516103b39190613478565b60405180910390f35b6103c461113a565b005b6103e060048036038101906103db919061256b565b6113c2565b6040516103ed919061345d565b60405180910390f35b60007f80ac58cd000000000000000000000000000000000000000000000000000000007bffffffffffffffffffffffffffffffffffffffffffffffffffffffff1916827bffffffffffffffffffffffffffffffffffffffffffffffffffffffff191614806104c157507f5b5e139f000000000000000000000000000000000000000000000000000000007bffffffffffffffffffffffffffffffffffffffffffffffffffffffff1916827bffffffffffffffffffffffffffffffffffffffffffffffffffffffff1916145b806104d157506104d0826114ef565b5b9050919050565b6000600f54905090565b6060600080546104f190613997565b80601f016020809104026020016040519081016040528092919081815260200182805461051d90613997565b801561056a5780601f1061053f5761010080835404028352916020019161056a565b820191906000526020600020905b81548152906001019060200180831161054d57829003601f168201915b5050505050905090565b600061057f82611559565b6105be576040517f08c379a00000000000000000000000000000000000000000000000000000000081526004016105b590613638565b60405180910390fd5b6004600083815260200190815260200160002060009054906101000a900473ffffffffffffffffffffffffffffffffffffffff169050919050565b6000610604826109cd565b90508073ffffffffffffffffffffffffffffffffffffffff168373ffffffffffffffffffffffffffffffffffffffff161415610675576040517f08c379a000000000000000000000000000000000000000000000000000000000815260040161066c90613698565b60405180910390fd5b8073ffffffffffffffffffffffffffffffffffffffff166106946115c5565b73ffffffffffffffffffffffffffffffffffffffff1614806106c357506106c2816106bd6115c5565b6113c2565b5b610702576040517f08c379a00000000000000000000000000000000000000000000000000000000081526004016106f990613578565b60405180910390fd5b61070c83836115cd565b505050565b61072261071c6115c5565b82611686565b610761576040517f08c379a0000000000000000000000000000000000000000000000000000000008152600401610758906136d8565b60405180910390fd5b61076c838383611764565b505050565b606060006107a5610781846119c0565b6040516020016107919190613359565b604051602081830303815290604052611b6d565b9050600a80549050816107b89190613a12565b9050600a81815481106107f4577f4e487b7100000000000000000000000000000000000000000000000000000000600052603260045260246000fd5b90600052602060002001805461080990613997565b80601f016020809104026020016040519081016040528092919081815260200182805461083590613997565b80156108825780601f1061085757610100808354040283529160200191610882565b820191906000526020600020905b81548152906001019060200180831161086557829003601f168201915b5050505050915050919050565b6108aa83838360405180602001604052806000815250610e68565b505050565b606060006108e36108bf846119c0565b6040516020016108cf919061339d565b604051602081830303815290604052611b6d565b9050600d80549050816108f69190613a12565b9050600d8181548110610932577f4e487b7100000000000000000000000000000000000000000000000000000000600052603260045260246000fd5b90600052602060002001805461094790613997565b80601f016020809104026020016040519081016040528092919081815260200182805461097390613997565b80156109c05780601f10610995576101008083540402835291602001916109c0565b820191906000526020600020905b8154815290600101906020018083116109a357829003601f168201915b5050505050915050919050565b6000806002600084815260200190815260200160002060009054906101000a900473ffffffffffffffffffffffffffffffffffffffff169050600073ffffffffffffffffffffffffffffffffffffffff168173ffffffffffffffffffffffffffffffffffffffff161415610a76576040517f08c379a0000000000000000000000000000000000000000000000000000000008152600401610a6d906135b8565b60405180910390fd5b80915050919050565b60008073ffffffffffffffffffffffffffffffffffffffff168273ffffffffffffffffffffffffffffffffffffffff161415610af0576040517f08c379a0000000000000000000000000000000000000000000000000000000008152600401610ae790613598565b60405180910390fd5b600360008373ffffffffffffffffffffffffffffffffffffffff1673ffffffffffffffffffffffffffffffffffffffff168152602001908152602001600020549050919050565b606060018054610b4690613997565b80601f0160208091040260200160405190810160405280929190818152602001828054610b7290613997565b8015610bbf5780601f10610b9457610100808354040283529160200191610bbf565b820191906000526020600020905b815481529060010190602001808311610ba257829003601f168201915b5050505050905090565b610bd16115c5565b73ffffffffffffffffffffffffffffffffffffffff168273ffffffffffffffffffffffffffffffffffffffff161415610c3f576040517f08c379a0000000000000000000000000000000000000000000000000000000008152600401610c3690613538565b60405180910390fd5b8060056000610c4c6115c5565b73ffffffffffffffffffffffffffffffffffffffff1673ffffffffffffffffffffffffffffffffffffffff16815260200190815260200160002060008473ffffffffffffffffffffffffffffffffffffffff1673ffffffffffffffffffffffffffffffffffffffff16815260200190815260200160002060006101000a81548160ff0219169083151502179055508173ffffffffffffffffffffffffffffffffffffffff16610cf96115c5565b73ffffffffffffffffffffffffffffffffffffffff167f17307eab39ab6107e8899845ad3d59bd9653f200f220920489ca2b5937696c3183604051610d3e919061345d565b60405180910390a35050565b60606000610d7e610d5a846119c0565b604051602001610d6a91906132f2565b604051602081830303815290604052611b6d565b9050600b8054905081610d919190613a12565b9050600b8181548110610dcd577f4e487b7100000000000000000000000000000000000000000000000000000000600052603260045260246000fd5b906000526020600020018054610de290613997565b80601f0160208091040260200160405190810160405280929190818152602001828054610e0e90613997565b8015610e5b5780601f10610e3057610100808354040283529160200191610e5b565b820191906000526020600020905b815481529060010190602001808311610e3e57829003601f168201915b5050505050915050919050565b610e79610e736115c5565b83611686565b610eb8576040517f08c379a0000000000000000000000000000000000000000000000000000000008152600401610eaf906136d8565b60405180910390fd5b610ec484848484611ba0565b50505050565b60606000610efe610eda846119c0565b604051602001610eea91906132d0565b604051602081830303815290604052611b6d565b9050600c8054905081610f119190613a12565b9050600c8181548110610f4d577f4e487b7100000000000000000000000000000000000000000000000000000000600052603260045260246000fd5b906000526020600020018054610f6290613997565b80601f0160208091040260200160405190810160405280929190818152602001828054610f8e90613997565b8015610fdb5780601f10610fb057610100808354040283529160200191610fdb565b820191906000526020600020905b815481529060010190602001808311610fbe57829003601f168201915b5050505050915050919050565b6060610ff382611559565b611032576040517f08c379a000000000000000000000000000000000000000000000000000000000815260040161102990613618565b60405180910390fd5b600060066000848152602001908152602001600020805461105290613997565b80601f016020809104026020016040519081016040528092919081815260200182805461107e90613997565b80156110cb5780601f106110a0576101008083540402835291602001916110cb565b820191906000526020600020905b8154815290600101906020018083116110ae57829003601f168201915b5050505050905060006110dc611bfc565b90506000815114156110f2578192505050611135565b60008251111561112757808260405160200161110f929190613210565b60405160208183030381529060405292505050611135565b61113084611c13565b925050505b919050565b60006111466007611cba565b9050600e546001600f5461115a91906137cc565b111561119b576040517f08c379a0000000000000000000000000000000000000000000000000000000008152600401611192906136b8565b60405180910390fd5b60006111a682610771565b905060006111b383610d4a565b905060006111c084610eca565b905060008383836040516020016111d993929190613234565b604051602081830303815290604052905060006111f5866108af565b905060006008826009856040516020016112129493929190613265565b604051602081830303815290604052905060006112578461123284611cc8565b604051602001611243929190613314565b604051602081830303815290604052611cc8565b905060008160405160200161126c919061337b565b60405160208183030381529060405290506112bb6040518060400160405280601581526020017f0a2d2d2d2d2d2d2d2d2d2d2d2d2d2d2d2d2d2d2d2d0000000000000000000000815250611456565b6112e3816040516020016112cf91906132ae565b604051602081830303815290604052611456565b6113216040518060400160405280601581526020017f2d2d2d2d2d2d2d2d2d2d2d2d2d2d2d2d2d2d2d2d0a0000000000000000000000815250611456565b61132b338a611e86565b6113358982611ea4565b61133f6007611f18565b611362604051806060016040528060258152602001613b6d602591398a33611f2e565b600f6000815480929190611375906139c9565b91905055507f9e9e101732de0887d722bd72c01c5439edc857c9c2c763953d67e66de12441d3338a600f546040516113af93929190613426565b60405180910390a1505050505050505050565b6000600560008473ffffffffffffffffffffffffffffffffffffffff1673ffffffffffffffffffffffffffffffffffffffff16815260200190815260200160002060008373ffffffffffffffffffffffffffffffffffffffff1673ffffffffffffffffffffffffffffffffffffffff16815260200190815260200160002060009054906101000a900460ff16905092915050565b6114ec8160405160240161146a9190613478565b6040516020818303038152906040527f41304fac000000000000000000000000000000000000000000000000000000007bffffffffffffffffffffffffffffffffffffffffffffffffffffffff19166020820180517bffffffffffffffffffffffffffffffffffffffffffffffffffffffff8381831617835250505050611fcd565b50565b60007f01ffc9a7000000000000000000000000000000000000000000000000000000007bffffffffffffffffffffffffffffffffffffffffffffffffffffffff1916827bffffffffffffffffffffffffffffffffffffffffffffffffffffffff1916149050919050565b60008073ffffffffffffffffffffffffffffffffffffffff166002600084815260200190815260200160002060009054906101000a900473ffffffffffffffffffffffffffffffffffffffff1673ffffffffffffffffffffffffffffffffffffffff1614159050919050565b600033905090565b816004600083815260200190815260200160002060006101000a81548173ffffffffffffffffffffffffffffffffffffffff021916908373ffffffffffffffffffffffffffffffffffffffff160217905550808273ffffffffffffffffffffffffffffffffffffffff16611640836109cd565b73ffffffffffffffffffffffffffffffffffffffff167f8c5be1e5ebec7d5bd14f71427d1e84f3dd0314c0f7b2291e5b200ac8c7c3b92560405160405180910390a45050565b600061169182611559565b6116d0576040517f08c379a00000000000000000000000000000000000000000000000000000000081526004016116c790613558565b60405180910390fd5b60006116db836109cd565b90508073ffffffffffffffffffffffffffffffffffffffff168473ffffffffffffffffffffffffffffffffffffffff16148061174a57508373ffffffffffffffffffffffffffffffffffffffff1661173284610574565b73ffffffffffffffffffffffffffffffffffffffff16145b8061175b575061175a81856113c2565b5b91505092915050565b8273ffffffffffffffffffffffffffffffffffffffff16611784826109cd565b73ffffffffffffffffffffffffffffffffffffffff16146117da576040517f08c379a00000000000000000000000000000000000000000000000000000000081526004016117d190613658565b60405180910390fd5b600073ffffffffffffffffffffffffffffffffffffffff168273ffffffffffffffffffffffffffffffffffffffff16141561184a576040517f08c379a000000000000000000000000000000000000000000000000000000000815260040161184190613518565b60405180910390fd5b611855838383611ff6565b6118606000826115cd565b6001600360008573ffffffffffffffffffffffffffffffffffffffff1673ffffffffffffffffffffffffffffffffffffffff16815260200190815260200160002060008282546118b091906138ad565b925050819055506001600360008473ffffffffffffffffffffffffffffffffffffffff1673ffffffffffffffffffffffffffffffffffffffff168152602001908152602001600020600082825461190791906137cc565b92505081905550816002600083815260200190815260200160002060006101000a81548173ffffffffffffffffffffffffffffffffffffffff021916908373ffffffffffffffffffffffffffffffffffffffff160217905550808273ffffffffffffffffffffffffffffffffffffffff168473ffffffffffffffffffffffffffffffffffffffff167fddf252ad1be2c89b69c2b068fc378daa952ba7f163c4a11628f55a4df523b3ef60405160405180910390a4505050565b60606000821415611a08576040518060400160405280600181526020017f30000000000000000000000000000000000000000000000000000000000000008152509050611b68565b600082905060005b60008214611a3a578080611a23906139c9565b915050600a82611a339190613822565b9150611a10565b60008167ffffffffffffffff811115611a7c577f4e487b7100000000000000000000000000000000000000000000000000000000600052604160045260246000fd5b6040519080825280601f01601f191660200182016040528015611aae5781602001600182028036833780820191505090505b5090505b60008514611b6157600182611ac791906138ad565b9150600a85611ad69190613a12565b6030611ae291906137cc565b60f81b818381518110611b1e577f4e487b7100000000000000000000000000000000000000000000000000000000600052603260045260246000fd5b60200101907effffffffffffffffffffffffffffffffffffffffffffffffffffffffffffff1916908160001a905350600a85611b5a9190613822565b9450611ab2565b8093505050505b919050565b600081604051602001611b8091906131f9565b6040516020818303038152906040528051906020012060001c9050919050565b611bab848484611764565b611bb784848484611ffb565b611bf6576040517f08c379a0000000000000000000000000000000000000000000000000000000008152600401611bed906134d8565b60405180910390fd5b50505050565b606060405180602001604052806000815250905090565b6060611c1e82611559565b611c5d576040517f08c379a0000000000000000000000000000000000000000000000000000000008152600401611c5490613678565b60405180910390fd5b6000611c67611bfc565b90506000815111611c875760405180602001604052806000815250611cb2565b80611c91846119c0565b604051602001611ca2929190613210565b6040516020818303038152906040525b915050919050565b600081600001549050919050565b60606000825190506000811415611cf15760405180602001604052806000815250915050611e81565b60006003600283611d0291906137cc565b611d0c9190613822565b6004611d189190613853565b90506000602082611d2991906137cc565b67ffffffffffffffff811115611d68577f4e487b7100000000000000000000000000000000000000000000000000000000600052604160045260246000fd5b6040519080825280601f01601f191660200182016040528015611d9a5781602001600182028036833780820191505090505b5090506000604051806060016040528060408152602001613b92604091399050600181016020830160005b86811015611e3e5760038101905062ffffff818a015116603f8160121c168401518060081b905060ff603f83600c1c1686015116810190508060081b905060ff603f8360061c1686015116810190508060081b905060ff603f831686015116810190508060e01b90508084526004840193505050611dc5565b506003860660018114611e585760028114611e6857611e73565b613d3d60f01b6002830352611e73565b603d60f81b60018303525b508484525050819450505050505b919050565b611ea0828260405180602001604052806000815250612192565b5050565b611ead82611559565b611eec576040517f08c379a0000000000000000000000000000000000000000000000000000000008152600401611ee3906135d8565b60405180910390fd5b80600660008481526020019081526020016000209080519060200190611f139291906123ce565b505050565b6001816000016000828254019250508190555050565b611fc8838383604051602401611f469392919061349a565b6040516020818303038152906040527fe3849f79000000000000000000000000000000000000000000000000000000007bffffffffffffffffffffffffffffffffffffffffffffffffffffffff19166020820180517bffffffffffffffffffffffffffffffffffffffffffffffffffffffff8381831617835250505050611fcd565b505050565b60008151905060006a636f6e736f6c652e6c6f679050602083016000808483855afa5050505050565b505050565b600061201c8473ffffffffffffffffffffffffffffffffffffffff166121ed565b15612185578373ffffffffffffffffffffffffffffffffffffffff1663150b7a026120456115c5565b8786866040518563ffffffff1660e01b815260040161206794939291906133da565b602060405180830381600087803b15801561208157600080fd5b505af19250505080156120b257506040513d601f19601f820116820180604052508101906120af9190612712565b60015b612135573d80600081146120e2576040519150601f19603f3d011682016040523d82523d6000602084013e6120e7565b606091505b5060008151141561212d576040517f08c379a0000000000000000000000000000000000000000000000000000000008152600401612124906134d8565b60405180910390fd5b805181602001fd5b63150b7a0260e01b7bffffffffffffffffffffffffffffffffffffffffffffffffffffffff1916817bffffffffffffffffffffffffffffffffffffffffffffffffffffffff19161491505061218a565b600190505b949350505050565b61219c8383612200565b6121a96000848484611ffb565b6121e8576040517f08c379a00000000000000000000000000000000000000000000000000000000081526004016121df906134d8565b60405180910390fd5b505050565b600080823b905060008111915050919050565b600073ffffffffffffffffffffffffffffffffffffffff168273ffffffffffffffffffffffffffffffffffffffff161415612270576040517f08c379a0000000000000000000000000000000000000000000000000000000008152600401612267906135f8565b60405180910390fd5b61227981611559565b156122b9576040517f08c379a00000000000000000000000000000000000000000000000000000000081526004016122b0906134f8565b60405180910390fd5b6122c560008383611ff6565b6001600360008473ffffffffffffffffffffffffffffffffffffffff1673ffffffffffffffffffffffffffffffffffffffff168152602001908152602001600020600082825461231591906137cc565b92505081905550816002600083815260200190815260200160002060006101000a81548173ffffffffffffffffffffffffffffffffffffffff021916908373ffffffffffffffffffffffffffffffffffffffff160217905550808273ffffffffffffffffffffffffffffffffffffffff16600073ffffffffffffffffffffffffffffffffffffffff167fddf252ad1be2c89b69c2b068fc378daa952ba7f163c4a11628f55a4df523b3ef60405160405180910390a45050565b8280546123da90613997565b90600052602060002090601f0160209004810192826123fc5760008555612443565b82601f1061241557805160ff1916838001178555612443565b82800160010185558215612443579182015b82811115612442578251825591602001919060010190612427565b5b5090506124509190612454565b5090565b5b8082111561246d576000816000905550600101612455565b5090565b600061248461247f84613744565b613713565b90508281526020810184848401111561249c57600080fd5b6124a7848285613955565b509392505050565b6000813590506124be81613b10565b92915050565b6000813590506124d381613b27565b92915050565b6000813590506124e881613b3e565b92915050565b6000815190506124fd81613b3e565b92915050565b600082601f83011261251457600080fd5b8135612524848260208601612471565b91505092915050565b60008135905061253c81613b55565b92915050565b60006020828403121561255457600080fd5b6000612562848285016124af565b91505092915050565b6000806040838503121561257e57600080fd5b600061258c858286016124af565b925050602061259d858286016124af565b9150509250929050565b6000806000606084860312156125bc57600080fd5b60006125ca868287016124af565b93505060206125db868287016124af565b92505060406125ec8682870161252d565b9150509250925092565b6000806000806080858703121561260c57600080fd5b600061261a878288016124af565b945050602061262b878288016124af565b935050604061263c8782880161252d565b925050606085013567ffffffffffffffff81111561265957600080fd5b61266587828801612503565b91505092959194509250565b6000806040838503121561268457600080fd5b6000612692858286016124af565b92505060206126a3858286016124c4565b9150509250929050565b600080604083850312156126c057600080fd5b60006126ce858286016124af565b92505060206126df8582860161252d565b9150509250929050565b6000602082840312156126fb57600080fd5b6000612709848285016124d9565b91505092915050565b60006020828403121561272457600080fd5b6000612732848285016124ee565b91505092915050565b60006020828403121561274d57600080fd5b600061275b8482850161252d565b91505092915050565b61276d816138e1565b82525050565b61277c816138f3565b82525050565b600061278d82613789565b612797818561379f565b93506127a7818560208601613964565b6127b081613aff565b840191505092915050565b60006127c682613794565b6127d081856137b0565b93506127e0818560208601613964565b6127e981613aff565b840191505092915050565b60006127ff82613794565b61280981856137c1565b9350612819818560208601613964565b80840191505092915050565b6000815461283281613997565b61283c81866137c1565b9450600182166000811461285757600181146128685761289b565b60ff1983168652818601935061289b565b61287185613774565b60005b8381101561289357815481890152600182019150602081019050612874565b838801955050505b50505092915050565b60006128b16025836137c1565b91507f68747470733a2f2f6e6674707265766965772e30786465762e636f6465732f3f60008301527f636f64653d0000000000000000000000000000000000000000000000000000006020830152602582019050919050565b60006129176032836137b0565b91507f4552433732313a207472616e7366657220746f206e6f6e20455243373231526560008301527f63656976657220696d706c656d656e74657200000000000000000000000000006020830152604082019050919050565b600061297d601c836137b0565b91507f4552433732313a20746f6b656e20616c7265616479206d696e746564000000006000830152602082019050919050565b60006129bd600a836137c1565b91507f54484952445f574f5244000000000000000000000000000000000000000000006000830152600a82019050919050565b60006129fd6024836137b0565b91507f4552433732313a207472616e7366657220746f20746865207a65726f2061646460008301527f72657373000000000000000000000000000000000000000000000000000000006020830152604082019050919050565b6000612a636019836137b0565b91507f4552433732313a20617070726f766520746f2063616c6c6572000000000000006000830152602082019050919050565b6000612aa36063836137c1565b91507f222c20226465736372697074696f6e223a20224120686967686c79206163636c60008301527f61696d656420636f6c6c656374696f6e206f6620737175617265732e222c202260208301527f696d616765223a2022646174613a696d6167652f7376672b786d6c3b6261736560408301527f36342c00000000000000000000000000000000000000000000000000000000006060830152606382019050919050565b6000612b55600b836137c1565b91507f5345434f4e445f574f52440000000000000000000000000000000000000000006000830152600b82019050919050565b6000612b95602c836137b0565b91507f4552433732313a206f70657261746f7220717565727920666f72206e6f6e657860008301527f697374656e7420746f6b656e00000000000000000000000000000000000000006020830152604082019050919050565b6000612bfb600d836137c1565b91507f3c2f746578743e3c2f7376673e000000000000000000000000000000000000006000830152600d82019050919050565b6000612c3b6038836137b0565b91507f4552433732313a20617070726f76652063616c6c6572206973206e6f74206f7760008301527f6e6572206e6f7220617070726f76656420666f7220616c6c00000000000000006020830152604082019050919050565b6000612ca1602a836137b0565b91507f4552433732313a2062616c616e636520717565727920666f7220746865207a6560008301527f726f2061646472657373000000000000000000000000000000000000000000006020830152604082019050919050565b6000612d076029836137b0565b91507f4552433732313a206f776e657220717565727920666f72206e6f6e657869737460008301527f656e7420746f6b656e00000000000000000000000000000000000000000000006020830152604082019050919050565b6000612d6d602e836137b0565b91507f45524337323155524953746f726167653a2055524920736574206f66206e6f6e60008301527f6578697374656e7420746f6b656e0000000000000000000000000000000000006020830152604082019050919050565b6000612dd36002836137c1565b91507f227d0000000000000000000000000000000000000000000000000000000000006000830152600282019050919050565b6000612e136020836137b0565b91507f4552433732313a206d696e7420746f20746865207a65726f20616464726573736000830152602082019050919050565b6000612e536031836137b0565b91507f45524337323155524953746f726167653a2055524920717565727920666f722060008301527f6e6f6e6578697374656e7420746f6b656e0000000000000000000000000000006020830152604082019050919050565b6000612eb9602c836137b0565b91507f4552433732313a20617070726f76656420717565727920666f72206e6f6e657860008301527f697374656e7420746f6b656e00000000000000000000000000000000000000006020830152604082019050919050565b6000612f1f6029836137b0565b91507f4552433732313a207472616e73666572206f6620746f6b656e2074686174206960008301527f73206e6f74206f776e00000000000000000000000000000000000000000000006020830152604082019050919050565b6000612f85602f836137b0565b91507f4552433732314d657461646174613a2055524920717565727920666f72206e6f60008301527f6e6578697374656e7420746f6b656e00000000000000000000000000000000006020830152604082019050919050565b6000612feb600a836137c1565b91507f7b226e616d65223a2022000000000000000000000000000000000000000000006000830152600a82019050919050565b600061302b6021836137b0565b91507f4552433732313a20617070726f76616c20746f2063757272656e74206f776e6560008301527f72000000000000000000000000000000000000000000000000000000000000006020830152604082019050919050565b6000613091600a836137c1565b91507f46495253545f574f5244000000000000000000000000000000000000000000006000830152600a82019050919050565b60006130d1601a836137b0565b91507f4f7574206f66204e465420746f204d696e7420627275767621210000000000006000830152602082019050919050565b6000613111601d836137c1565b91507f646174613a6170706c69636174696f6e2f6a736f6e3b6261736536342c0000006000830152601d82019050919050565b60006131516031836137b0565b91507f4552433732313a207472616e736665722063616c6c6572206973206e6f74206f60008301527f776e6572206e6f7220617070726f7665640000000000000000000000000000006020830152604082019050919050565b60006131b76005836137c1565b91507f434f4c4f520000000000000000000000000000000000000000000000000000006000830152600582019050919050565b6131f38161394b565b82525050565b600061320582846127f4565b915081905092915050565b600061321c82856127f4565b915061322882846127f4565b91508190509392505050565b600061324082866127f4565b915061324c82856127f4565b915061325882846127f4565b9150819050949350505050565b60006132718287612825565b915061327d82866127f4565b91506132898285612825565b915061329582846127f4565b91506132a082612bee565b915081905095945050505050565b60006132b9826128a4565b91506132c582846127f4565b915081905092915050565b60006132db826129b0565b91506132e782846127f4565b915081905092915050565b60006132fd82612b48565b915061330982846127f4565b915081905092915050565b600061331f82612fde565b915061332b82856127f4565b915061333682612a96565b915061334282846127f4565b915061334d82612dc6565b91508190509392505050565b600061336482613084565b915061337082846127f4565b915081905092915050565b600061338682613104565b915061339282846127f4565b915081905092915050565b60006133a8826131aa565b91506133b482846127f4565b915081905092915050565b60006020820190506133d46000830184612764565b92915050565b60006080820190506133ef6000830187612764565b6133fc6020830186612764565b61340960408301856131ea565b818103606083015261341b8184612782565b905095945050505050565b600060608201905061343b6000830186612764565b61344860208301856131ea565b61345560408301846131ea565b949350505050565b60006020820190506134726000830184612773565b92915050565b6000602082019050818103600083015261349281846127bb565b905092915050565b600060608201905081810360008301526134b481866127bb565b90506134c360208301856131ea565b6134d06040830184612764565b949350505050565b600060208201905081810360008301526134f18161290a565b9050919050565b6000602082019050818103600083015261351181612970565b9050919050565b60006020820190508181036000830152613531816129f0565b9050919050565b6000602082019050818103600083015261355181612a56565b9050919050565b6000602082019050818103600083015261357181612b88565b9050919050565b6000602082019050818103600083015261359181612c2e565b9050919050565b600060208201905081810360008301526135b181612c94565b9050919050565b600060208201905081810360008301526135d181612cfa565b9050919050565b600060208201905081810360008301526135f181612d60565b9050919050565b6000602082019050818103600083015261361181612e06565b9050919050565b6000602082019050818103600083015261363181612e46565b9050919050565b6000602082019050818103600083015261365181612eac565b9050919050565b6000602082019050818103600083015261367181612f12565b9050919050565b6000602082019050818103600083015261369181612f78565b9050919050565b600060208201905081810360008301526136b18161301e565b9050919050565b600060208201905081810360008301526136d1816130c4565b9050919050565b600060208201905081810360008301526136f181613144565b9050919050565b600060208201905061370d60008301846131ea565b92915050565b6000604051905081810181811067ffffffffffffffff8211171561373a57613739613ad0565b5b8060405250919050565b600067ffffffffffffffff82111561375f5761375e613ad0565b5b601f19601f8301169050602081019050919050565b60008190508160005260206000209050919050565b600081519050919050565b600081519050919050565b600082825260208201905092915050565b600082825260208201905092915050565b600081905092915050565b60006137d78261394b565b91506137e28361394b565b9250827fffffffffffffffffffffffffffffffffffffffffffffffffffffffffffffffff0382111561381757613816613a43565b5b828201905092915050565b600061382d8261394b565b91506138388361394b565b92508261384857613847613a72565b5b828204905092915050565b600061385e8261394b565b91506138698361394b565b9250817fffffffffffffffffffffffffffffffffffffffffffffffffffffffffffffffff04831182151516156138a2576138a1613a43565b5b828202905092915050565b60006138b88261394b565b91506138c38361394b565b9250828210156138d6576138d5613a43565b5b828203905092915050565b60006138ec8261392b565b9050919050565b60008115159050919050565b60007fffffffff0000000000000000000000000000000000000000000000000000000082169050919050565b600073ffffffffffffffffffffffffffffffffffffffff82169050919050565b6000819050919050565b82818337600083830152505050565b60005b83811015613982578082015181840152602081019050613967565b83811115613991576000848401525b50505050565b600060028204905060018216806139af57607f821691505b602082108114156139c3576139c2613aa1565b5b50919050565b60006139d48261394b565b91507fffffffffffffffffffffffffffffffffffffffffffffffffffffffffffffffff821415613a0757613a06613a43565b5b600182019050919050565b6000613a1d8261394b565b9150613a288361394b565b925082613a3857613a37613a72565b5b828206905092915050565b7f4e487b7100000000000000000000000000000000000000000000000000000000600052601160045260246000fd5b7f4e487b7100000000000000000000000000000000000000000000000000000000600052601260045260246000fd5b7f4e487b7100000000000000000000000000000000000000000000000000000000600052602260045260246000fd5b7f4e487b7100000000000000000000000000000000000000000000000000000000600052604160045260246000fd5b6000601f19601f8301169050919050565b613b19816138e1565b8114613b2457600080fd5b50565b613b30816138f3565b8114613b3b57600080fd5b50565b613b47816138ff565b8114613b5257600080fd5b50565b613b5e8161394b565b8114613b6957600080fd5b5056fe416e204e465420772f20494420257320686173206265656e206d696e74656420746f2025734142434445464748494a4b4c4d4e4f505152535455565758595a6162636465666768696a6b6c6d6e6f707172737475767778797a303132333435363738392b2fa26469706673582212209c523cd3b5190af3d98e7e028938fc109fadc169ef28c34898aa8b4fa91bc61164736f6c634300080000333c73766720786d6c6e733d27687474703a2f2f7777772e77332e6f72672f323030302f73766727207072657365727665417370656374526174696f3d27784d696e594d696e206d656574272076696577426f783d273020302033353020333530273e3c7374796c653e2e62617365207b2066696c6c3a2077686974653b20666f6e742d66616d696c793a2073657269663b20666f6e742d73697a653a20323470783b207d3c2f7374796c653e3c726563742077696474683d273130302527206865696768743d2731303025272066696c6c3d27272f3e3c7465787420783d273530252720793d273530252720636c6173733d27626173652720646f6d696e616e742d626173656c696e653d276d6964646c652720746578742d616e63686f723d276d6964646c65273e",
  "linkReferences": {},
  "deployedLinkReferences": {}
}